:020000040800F2
:10000000B8060020650100088B0100088D0100087A
:1000100000000000000000000000000000000000E0
:100020000000000000000000000000008F01000838
:10003000000000000000000091010008930100088A
:100040009501000895010008950100089501000838
:1000500095010008F10600089501000895010008C7
:10006000650A00089501000895010008950100083F
:100070009501000895010008950100089501000808
:100080009501000800000000000000009501000834
:100090000000000095010008410A000895010008D1
:1000A0000000000095010008950100089501000876
:1000B0009501000800000000950100089501000866
:1000C00000F002F800F03EF80CA030C80838241800
:1000D0002D18A246671EAB4654465D46AC4201D180
:1000E00000F030F87E460F3E0FCCB6460126334274
:1000F00000D0FB1AA246AB463343184780140000D9
:10010000A0140000103A02D378C878C1FAD8520778
:1001100001D330C830C101D504680C6070470000BD
:100120000023002400250026103A01D378C1FBD813
:10013000520700D330C100D50B6070471FB51FBDFB
:1001400010B510BD00F0F8F81146FFF7F7FF00F00A
:1001500095FE00F010F903B4FFF7F2FF03BC00F0C6
:1001600017F900000F4880F308880F480168090E4E
:100170000E4A914205D10E480E4901600E480F49C2
:1001800001600F4880470F480047FEE7FEE7FEE7A3
:10019000FEE7FEE7FEE700000B480C490C4A0D4B5A
:1001A00070470000B8060020040000001F00000097
:1001B0001810024001000000000001400000000093
:1001C000CD090008C1000008B8000020B8060020D2
:1001D000B8020020B8020020002203098B422CD371
:1001E000030A8B4211D300239C464EE003460B4387
:1001F0003CD4002243088B4231D303098B421CD3E9
:10020000030A8B4201D394463FE0C3098B4201D3DA
:10021000CB01C01A524183098B4201D38B01C01A12
:10022000524143098B4201D34B01C01A5241030989
:100230008B4201D30B01C01A5241C3088B4201D338
:10024000CB00C01A524183088B4201D38B00C01AE5
:10025000524143088B4201D34B00C01A5241411A0C
:1002600000D201465241104670475DE0CA0F00D0EF
:100270004942031000D34042534000229C460309E8
:100280008B422DD3030A8B4212D3FC22890112BA6E
:10029000030A8B420CD3890192118B4208D3890146
:1002A00092118B4204D389013AD0921100E089095E
:1002B000C3098B4201D3CB01C01A524183098B423F
:1002C00001D38B01C01A524143098B4201D34B0128
:1002D000C01A524103098B4201D30B01C01A52418B
:1002E000C3088B4201D3CB00C01A524183088B4212
:1002F00001D38B00C01A5241D9D243088B4201D39B
:100300004B00C01A5241411A00D201466346524185
:100310005B10104601D34042002B00D54942704784
:1003200063465B1000D3404201B50020C046C04682
:1003300002BD704770477047754600F025F8AE461D
:10034000050069465346C008C000854618B020B570
:10035000FFF722FF60BC00274908B6460026C0C54B
:10036000C0C5C0C5C0C5C0C5C0C5C0C5C0C5403D6D
:1003700049008D46704710B50446C046C046204629
:10038000FFF7E9FE10BD000000487047580000204C
:1003900001491820ABBEFEE72600020070470000AE
:1003A00030B500242A25302000F0C4F808E00A4BBC
:1003B000621C995C1A46105D00F04AF9A01CC4B298
:1003C000AC42F4DB362000F0B5F83A2000F0B2F889
:1003D0003B2000F0AFF830BDF010000870B50346C8
:1003E0000925ED06AD6A102635430926F606B562E5
:1003F00000BF0925ED062D6940263540002DF8D1B6
:1004000000BF224DAD6802263540002DF9D0C02531
:100410001D431E4E357300BF1C4DAD688026354010
:10042000002DF9D100BF194DAD68ED07ED0F002D7E
:10043000F9D0164D2C7B00201CE000BF134DAD6899
:1004400002263540002DF9D00025104E357300BF2F
:100450000E4DAD6880263540002DF9D100BF0B4D03
:10046000AD68ED07ED0F002DF9D0084D2D7B0D5433
:10047000451CE8B29042E0DB0925ED06AD69102687
:1004800035430926F606B56170BD00000030014015
:1004900001460922D206926A10231A430923DB0679
:1004A0009A6200BF0922D206126940231A40002A2C
:1004B000F8D100BF1E4A926802231A40002AF9D0E0
:1004C00080220A431A4B1A7300BF194A926880238C
:1004D0001A40002AF9D100BF154A9268D207D20FFC
:1004E000002AF9D0124A117B00BF114A92680223F8
:1004F0001A40002AF9D000220D4B1A7300BF0C4A93
:10050000926880231A40002AF9D100BF084A9268F5
:10051000D207D20F002AF9D0054A107B0922D20651
:10052000926910231A430923DB069A617047000081
:100530000030014001460922D206926A10231A4374
:100540000923DB069A6200BF0922D2061269402302
:100550001A40002AF8D100BF104A926802231A40BC
:10056000002AF9D00D4A117300BF0C4A926880230B
:100570001A40002AF9D100BF084A9268D207D20F68
:10058000002AF9D0054AD268D0B20922D20692696F
:1005900010231A430923DB069A617047003001409B
:1005A00070B503460925ED06AD6A102635430926C8
:1005B000F606B56200BF0925ED062D6940263540D7
:1005C000002DF8D100BF214DAD6802263540002D29
:1005D000F9D040251D431D4E357300BF1B4DAD683E
:1005E00080263540002DF9D100BF184DAD68ED07CC
:1005F000ED0F002DF9D0154D2C7B00201BE000BF26
:10060000124DAD6802263540002DF9D00D5C0F4E1D
:10061000357300BF0D4DAD6880263540002DF9D1F2
:1006200000BF0A4DAD68ED07ED0F002DF9D0074D65
:100630002C7B451CE8B29042E1DB0925ED06AD6953
:10064000102635430926F606B56170BD003001401D
:1006500010B502460923DB069B6A102423430924B4
:10066000E406A36200BF0923DB061B694024234084
:10067000002BF8D100BF1D4B9B6802242340002BA8
:10068000F9D01A4B1A7300BF184B9B688024234083
:10069000002BF9D100BF154B9B68DB07DB0F002B4C
:1006A000F9D0124B187B00BF104B9B6802242340EB
:1006B000002BF9D00D4B197300BF0C4B9B688024A5
:1006C0002340002BF9D100BF084B9B68DB07DB0FF1
:1006D000002BF9D0054B187B0923DB069B691024FE
:1006E00023430924E406A36110BD0000003001404B
:1006F00007484069C007C00F002808D00448406977
:1007000001210843024948610120024908707047ED
:10071000000401400200002000BF0A488069012156
:10072000C90308400028F8D1064840680649084334
:100730000449486000BF03488069C007C00F002813
:10074000F9D07047005400407820FF0000BF0D48EA
:100750008069C007C00F0028F9D00A48406801210D
:10076000890308430749486000BF06488069202183
:1007700008400028F9D00348C06908430149C8610E
:10078000704700000054004000BF04498969C90750
:10079000C90F0029F9D00149886270470054004010
:1007A00030B505460B46FFF7B7FF4020FFF7ECFFDB
:1007B00000221DE0284620388100401880180F498B
:1007C0000C5C002B04D0E143C8B2FFF7DDFF02E070
:1007D0002046FFF7D9FF042A08D1002B03D0FF20C1
:1007E000FFF7D2FF02E00020FFF7CEFF501CC2B29D
:1007F000052ADFDBFFF7AAFF30BD00001A11000851
:1008000010B5002405E0002103A000F0BCF8601C36
:10081000C4B20A2CF7DB10BD20202020202020208D
:1008200020202020202020200000000070B5054658
:100830000E4600240AE02819C1B2002000F014F886
:10084000002104A000F09FF8601CC4B2B442F2DBA7
:1008500070BD0000202020202020202020202020EB
:10086000202020200000000010B502460B46FFF7B4
:1008700053FF0020FFF788FF3020FFF785FF114668
:1008800006246143491C80242143C8B2FFF77CFF42
:10089000402119430846FFF777FFFFF757FF10BDC8
:1008A00000B50920C006806A022108430921C90653
:1008B00088620A2000F092F90920C00680690221AE
:1008C00008430921C90688610A2000F087F9FFF76B
:1008D00023FF0020FFF758FF3120FFF755FF1420BA
:1008E000FFF752FF0620FFF74FFF3020FFF74CFFC6
:1008F0001120FFF749FF0520FFF746FF3120FFF7E2
:1009000043FF9A20FFF740FF0C20FFF73DFF302008
:10091000FFF73AFF0C20FFF737FF4020FFF734FFC7
:100920008020FFF731FFFFF711FF00BDFEB5054640
:100930000E460124002700BF0A2D0EDB0A2128469F
:10094000FFF754FCCFB238463030694608550A21CB
:100950002846FFF74BFC054604E028463030694640
:1009600008550025601CC4B2002DE5D1601EC4B23C
:1009700000BF6946085D3146FFF712FF601EC4B232
:10098000002CF6D1FEBD30B504460D4604E02078BB
:100990002946FFF705FF641C20780028F7D130BDF9
:1009A00010B50146802908DBFF2301335A1AD30F03
:1009B0009B185B104A33D8B206E00A46CB0F9B184F
:1009C0005B104A24E31AD8B210BD00001948006831
:1009D0000121084317490860084640681649084045
:1009E00014494860084600681449084011490860E5
:1009F000084600680121890488430E4908600846BA
:100A000040683F21090488430A4948600846C06A93
:100A100000090001C8620846006BFF21D4318843F9
:100A2000044908630846406B4008400048630020C2
:100A300088607047001002400CB8FF08FFFFF6FE08
:100A400000B507480069C007C00F002807D000F0B4
:100A50002FF803480069400840000149086100BDC3
:100A6000004801401048C068C007C00F002809D0E6
:100A70000D488068012108430B4988600846406C96
:100A80000A4908600848C0680221084000280AD0C6
:100A90000548C06808430449C860084680680121C9
:100AA000084301498860704700400240340000203C
:100AB0001F480088002804D01D480088401E1C499B
:100AC00008801C480088002809D1FF20F53019490A
:100AD0000880194840690121484017494861174872
:100AE0000088002806D17D20C0001449088001201C
:100AF0001349087013480088002808D13220114992
:100B0000088011480068022108430F49086009481D
:100B10000088401E074908800A480088401E09498D
:100B2000088006480088401E04490880704700007D
:100B30002C0000202E00002000040048320000207D
:100B4000080000203000002000400240002805DBA3
:100B5000C206D20E01219140014A11607047000087
:100B600000E100E010B5002819DB1A4A03231B023C
:100B7000D21883089B00D2588307DC0EFF23A340C2
:100B80009A438B071B0E8407E40EA3401A43114BB4
:100B9000032424021B198408A4001A5118E00E4AE9
:100BA00003071B0F083B9B089B00D2588307DC0EF2
:100BB000FF23A3409A438B071B0E8407E40EA34038
:100BC0001A43054B0407240F083CA408A4001A513B
:100BD00010BD000000E100E01CED00E003490880CA
:100BE00000BF024909880029FBD170472C00002072
:100BF00010B59548806901218904084392498861AC
:100C00009248934988620120C86208460068912191
:100C100008438F4908600846C068012108438C4991
:100C2000C8601620FFF792FF05211620FFF79AFFF4
:100C30008548406901218904084383494861854802
:100C4000006801210843834908607F484069C90161
:100C500008437D4948610920C00600683021884367
:100C60000921C90608600846C06810210843092107
:100C7000C906C86074484069012189050843724962
:100C80004861754800680A210843734908600846AE
:100C900080680F210843704988600846006A112166
:100CA00008436D4908620920C00600680421084312
:100CB0000921C90608606448C06901214905084343
:100CC0006149C8616548006905210907084363490E
:100CD0000861084640680321C90288435F494860AB
:100CE00008460068012108435C490860564840698D
:100CF000012149040843544948610920C00680681D
:100D0000FF21090208430921C906886008460068D6
:100D1000A92109020843C90408600846006A08625C
:100D200008460068FF21013108430921C90608600F
:100D300045488069012109030843434988614848BF
:100D40000068C52189000843454908600846406895
:100D50008914084342494860084600684021084316
:100D60003F4908600920C006806910210843092115
:100D7000C906886134488069012108433249886185
:100D80003848C0683749C8603748C06801210843FF
:100D90003549C86002210520FFF7E4FE0520FFF772
:100DA000D5FE2C4800680521C9010843294908607F
:100DB0000846006A3321090308432649086222488D
:100DC0004069890308432049486128480068284948
:100DD0000843264908600846406803210843234920
:100DE0004860084600690321090488431F490861D7
:100DF0000846006A0121090408431C4908620846A4
:100E0000806A012149040843184988620846006B3A
:100E100010210843154908630820FFF797FE0321B6
:100E20000820FFF79FFE62B60920C006C06811497E
:100E300008430921C906C8600648C0680E4908432E
:100E40000449C86010BD0000001002403F1F0000B0
:100E500000480140000400480014004800540040CD
:100E60000030014000000140000401400040024009
:100E7000C13000214000140004540000FFF7B8FE08
:100E8000FFF78EFA7D480068012108437B4908601E
:100E90000920C006006904210840002828D1FFF776
:100EA000FFFCFFF7ADFC00210420FFF7DDFC012172
:100EB00073A0FFF768FD01210020FFF7D5FC00219A
:100EC00072A0FFF760FDF120FFF7E2FA044600216F
:100ED000FFF72CFD00216FA0FFF755FDF020FFF775
:100EE000D7FA04460021FFF721FD3420FFF722FB4B
:100EF0000920C0060069BFE06848007800281DD0BE
:100F0000FB20FFF7C5FA4006400E65490870F8203F
:100F1000FFF7BEFA634908700A226349FF20FFF712
:100F20005DFA0120614908700020614908703A208B
:100F3000FFF700FB3420FFF7FDFA08E05B4800787C
:100F4000002804D05A480078401C594908700920EC
:100F5000C006006904210840002867D15348007882
:100F6000002863D0F420FFF793FA0446FFF718FD3A
:100F70005049087003210020FFF776FC00214EA0A5
:100F8000FFF701FD4748007880210840002804D081
:100F900000214BA0FFF7F7FC03E000214AA0FFF778
:100FA000F2FC04210020FFF75FFC002148A0FFF7BE
:100FB000EAFC00213F480078FFF7B8FC002146A07A
:100FC000FFF7E1FC3548007800281DD006210020FD
:100FD000FFF74AFC002141A0FFF7D5FC0021324871
:100FE000FFF7D1FC07210020FFF73EFC00213CA0C9
:100FF000FFF7C9FC2C49C97909022B4A127A11431F
:1010000008460021FFF792FC002028490870234978
:10101000087027480078012808DD02210620FFF724
:1010200005FC0020224908701D4908700920C006EF
:1010300000690421084000281ED07D20C000FFF771
:10104000CDFD294800782949087227480088000406
:10105000000EC8713620FFF76DFAC021FE20FFF7A1
:10106000F7FA0A2221497F20FFF79AFA3520FFF785
:1010700061FA00200D4908703EE7000000040140BD
:101080002043433131303120000000005665722E7C
:101090002000000020506172742E20000200002009
:1010A0000300002005000020380000200800002078
:1010B00009000020040000204352433D20000000AE
:1010C000204F6B20200000002042616420000000BF
:1010D000525353493D2D0000202000003E000000E7
:1010E0004879673D20000000340000200B000020FC
:1010F0000206034708050B060D210E620F7610F657
:101100001183120315151818191620FB23E9242A38
:101110002500261F2C812D352E090000000000001F
:10112000002F00000007000700147F147F14242AFA
:101130007F2A12C4C810264636495522500005039E
:101140000000001C2241000041221C0014083E083F
:101150001408083E0808000050300010101010104D
:10116000006060000020100804023E5149453E0026
:10117000427F400042615149462141454B3118149C
:10118000127F1027454545393C4A494930017109CC
:1011900005033649494936064949291E00363600B5
:1011A00000005636000008142241001414141414D0
:1011B00000412214080201510906324959513E7E6C
:1011C0001111117E7F494949363E414141227F41FB
:1011D00041221C7F494949417F090909013E414992
:1011E000497A7F0808087F00417F41002040413F45
:1011F000017F081422417F404040407F020C027F63
:101200007F0408107F3E4141413E7F090909063EA7
:101210004151215E7F091929464649494931010159
:101220007F01013F4040403F1F2040201F3F40388A
:10123000403F63140814630708700807615149456B
:1012400043007F414100552A552A550041417F0006
:10125000040201020440404040400001020400201A
:10126000545454787F4844443838444444203844E3
:1012700044487F3854545418087E0901020C5252D5
:10128000523E7F0804047800447D40002040443DE5
:10129000007F1028440000417F40007C041804783F
:1012A0007C0804047838444444387C141414080836
:1012B0001414187C7C080404084854545420043F37
:1012C0004440203C4040207C1C2040201C3C4030BE
:1012D000403C44281028440C5050503C4464544C2A
:1012E00044000836410000007F000000413608003D
:1012F00004020408040000000000000000000000D8
:1013000000000000000000000000000000000000DD
:1013100000000000000000000000000000000000CD
:1013200000000000000000000000000000000000BD
:1013300000000000000000000000000000000000AD
:10134000000000000000000000000000000000009D
:10135000000000000000000000000000000000008D
:10136000000000000000000000000000000000007D
:10137000000000000000000000000000000000006D
:10138000000000000000000000000000000000005D
:10139000000000000000000000000000000000004D
:1013A000000000000000000000000000000000003D
:1013B00000000000000000000000360000000000F7
:1013C0000000000000000000000000003E49494904
:1013D00022000000000000000000000000000000EB
:1013E000000000000044457C45440000000000006F
:1013F0000000000000417F410000447D40000000EB
:1014000000000000000000000000000000000000DC
:1014100000000000000000000000000038544428D4
:1014200000000000000000000000000000000000BC
:1014300000000000004A487A40407E1111117E7F72
:10144000494949317F494949367F01010103603EDD
:1014500021217F7F4949494163147F14632249490F
:1014600049367F1008047F7F1009047F7F0814220B
:10147000417C0201017F7F020C027F7F0808087F08
:101480003E4141413E7F0101017F7F090909063E3E
:101490004141412201017F0101074848483F1C2288
:1014A0007F221C63140814633F20203F6007080854
:1014B000087F7F407F407F3F203F207F017F48485B
:1014C000307F4848307F7F48484830224949493E6C
:1014D0007F083E413E462919097F205454547878AC
:1014E000545454207C545454287C04040400603820
:1014F00024386038545454186C107C106C284454B0
:1015000054283C4040207C3C4042207C7C101028E9
:1015100044601008047C7C0810087C7C1010107C4F
:1015200038444444387C0404047C7C141414083883
:101530004444442004047C04040C5050503C1824BF
:101540007C241844281028443C20203C600C1010B7
:10155000107C7C407C407C3C203C207C047C4848C7
:10156000307C4830007C7C4848483028445454380B
:101570007C10384438582424247C00009C15000832
:10158000000000203800000004010008D415000805
:101590003800002080060000200100080000000044
:1015A00000000000000000487967726F3D20666609
:1015B000202020202000000000000000000000008B
:1015C000000000000000000000000000000000001B
:0415D0000000000017
:040000050800016589
:00000001FF
